:0200000080037B
:1000030080177590FF75A00075A881C2D3C2D4D2A2
:10001300B0D2B1C2B0C2B180FEC2D3C2D4A8907470
:100023001988F0A4AEF0746489F0A4AFF074328A36
:10003300F0A4E5F03E3FFBE9FAE8F9740E8CF0A476
:10004300E5F03BFE74878DF0A4AFF0EE9FFEECFD70
:10005300EEFCC2D3D2D4F8742588F0A4AEF0745069
:1000630089F0A4AFF074258AF0A4E5F03E3FFBE9E4
:10007300FAE8F9740A8CF0A4E5F03BFE741B8DF0EA
:10008300A4AFF0EE9FFEECFDEEFCD2D3D2D4F87415
:100093009988F0A4AEF0749989F0A4E5F03EFBE8EA
:1000A300F974058CF0A4E5F03BFEEEFCF5A0D2B0AC
:0700B300D2B1C2B0C2B132AC
:00000001FF
